{
  "contractName": "SimpleStorage",
  "abi": [
    {
      "constant": false,
      "inputs": [
        {
          "internalType": "string",
          "name": "x",
          "type": "string"
        }
      ],
      "name": "setipfsfile",
      "outputs": [],
      "payable": false,
      "stateMutability": "nonpayable",
      "type": "function"
    },
    {
      "constant": true,
      "inputs": [],
      "name": "getipfsfile",
      "outputs": [
        {
          "internalType": "string",
          "name": "",
          "type": "string"
        }
      ],
      "payable": false,
      "stateMutability": "view",
      "type": "function"
    },
    {
      "constant": false,
      "inputs": [
        {
          "internalType": "string",
          "name": "childnames",
          "type": "string"
        },
        {
          "internalType": "string",
          "name": "surname",
          "type": "string"
        },
        {
          "internalType": "enum SimpleStorage.Genders",
          "name": "gender",
          "type": "uint8"
        },
        {
          "internalType": "string",
          "name": "highschool",
          "type": "string"
        },
        {
          "internalType": "uint32",
          "name": "matricYear",
          "type": "uint32"
        },
        {
          "internalType": "uint32",
          "name": "aps",
          "type": "uint32"
        },
        {
          "internalType": "string",
          "name": "birthfile",
          "type": "string"
        }
      ],
      "name": "createChild",
      "outputs": [],
      "payable": false,
      "stateMutability": "nonpayable",
      "type": "function"
    },
    {
      "constant": true,
      "inputs": [],
      "name": "getChild",
      "outputs": [
        {
          "internalType": "string",
          "name": "",
          "type": "string"
        },
        {
          "internalType": "string",
          "name": "",
          "type": "string"
        },
        {
          "internalType": "enum SimpleStorage.Genders",
          "name": "",
          "type": "uint8"
        },
        {
          "internalType": "string",
          "name": "",
          "type": "string"
        },
        {
          "internalType": "uint32",
          "name": "",
          "type": "uint32"
        },
        {
          "internalType": "uint32",
          "name": "",
          "type": "uint32"
        },
        {
          "internalType": "string",
          "name": "",
          "type": "string"
        }
      ],
      "payable": false,
      "stateMutability": "view",
      "type": "function"
    }
  ],
  "bytecode": "0x60806040526040518060400160405280600481526020017f6b69636b000000000000000000000000000000000000000000000000000000008152506000908051906020019061004f929190610062565b5034801561005c57600080fd5b50610107565b828054600181600116156101000203166002900490600052602060002090601f016020900481019282601f106100a357805160ff19168380011785556100d1565b828001600101855582156100d1579182015b828111156100d05782518255916020019190600101906100b5565b5b5090506100de91906100e2565b5090565b61010491905b808211156101005760008160009055506001016100e8565b5090565b90565b610c7c806101166000396000f3fe608060405234801561001057600080fd5b506004361061004c5760003560e01c80631a573760146100515780632a43f338146102fe57806339614fb214610500578063b56956f0146105bb575b600080fd5b6102fc600480360360e081101561006757600080fd5b810190808035906020019064010000000081111561008457600080fd5b82018360208201111561009657600080fd5b803590602001918460018302840111640100000000831117156100b857600080fd5b91908080601f016020809104026020016040519081016040528093929190818152602001838380828437600081840152601f19601f8201169050808301925050505050505091929192908035906020019064010000000081111561011b57600080fd5b82018360208201111561012d57600080fd5b8035906020019184600183028401116401000000008311171561014f57600080fd5b91908080601f016020809104026020016040519081016040528093929190818152602001838380828437600081840152601f19601f820116905080830192505050505050509192919290803560ff169060200190929190803590602001906401000000008111156101bf57600080fd5b8201836020820111156101d157600080fd5b803590602001918460018302840111640100000000831117156101f357600080fd5b91908080601f016020809104026020016040519081016040528093929190818152602001838380828437600081840152601f19601f820116905080830192505050505050509192919290803563ffffffff169060200190929190803563ffffffff1690602001909291908035906020019064010000000081111561027657600080fd5b82018360208201111561028857600080fd5b803590602001918460018302840111640100000000831117156102aa57600080fd5b91908080601f016020809104026020016040519081016040528093929190818152602001838380828437600081840152601f19601f82011690508083019250505050505050919291929050505061063e565b005b610306610781565b60405180806020018060200188600181111561031e57fe5b60ff168152602001806020018763ffffffff1663ffffffff1681526020018663ffffffff1663ffffffff1681526020018060200185810385528c818151815260200191508051906020019080838360005b8381101561038a57808201518184015260208101905061036f565b50505050905090810190601f1680156103b75780820380516001836020036101000a031916815260200191505b5085810384528b818151815260200191508051906020019080838360005b838110156103f05780820151818401526020810190506103d5565b50505050905090810190601f16801561041d5780820380516001836020036101000a031916815260200191505b50858103835289818151815260200191508051906020019080838360005b8381101561045657808201518184015260208101905061043b565b50505050905090810190601f1680156104835780820380516001836020036101000a031916815260200191505b50858103825286818151815260200191508051906020019080838360005b838110156104bc5780820151818401526020810190506104a1565b50505050905090810190601f1680156104e95780820380516001836020036101000a031916815260200191505b509b50505050505050505050505060405180910390f35b6105b96004803603602081101561051657600080fd5b810190808035906020019064010000000081111561053357600080fd5b82018360208201111561054557600080fd5b8035906020019184600183028401116401000000008311171561056757600080fd5b91908080601f016020809104026020016040519081016040528093929190818152602001838380828437600081840152601f19601f820116905080830192505050505050509192919290505050610a66565b005b6105c3610a80565b6040518080602001828103825283818151815260200191508051906020019080838360005b838110156106035780820151818401526020810190506105e8565b50505050905090810190601f1680156106305780820380516001836020036101000a031916815260200191505b509250505060405180910390f35b6040518060e0016040528088815260200187815260200186600181111561066157fe5b81526020018581526020018463ffffffff1681526020018363ffffffff16815260200182815250600160008201518160000190805190602001906106a6929190610b22565b5060208201518160010190805190602001906106c3929190610b22565b5060408201518160020160006101000a81548160ff021916908360018111156106e857fe5b02179055506060820151816003019080519060200190610709929190610b22565b5060808201518160040160006101000a81548163ffffffff021916908363ffffffff16021790555060a08201518160040160046101000a81548163ffffffff021916908363ffffffff16021790555060c0820151816005019080519060200190610774929190610b22565b5090505050505050505050565b606080600060606000806060600160000160018001600160020160009054906101000a900460ff166001600301600160040160009054906101000a900463ffffffff16600160040160049054906101000a900463ffffffff166001600501868054600181600116156101000203166002900480601f0160208091040260200160405190810160405280929190818152602001828054600181600116156101000203166002900480156108745780601f1061084957610100808354040283529160200191610874565b820191906000526020600020905b81548152906001019060200180831161085757829003601f168201915b50505050509650858054600181600116156101000203166002900480601f0160208091040260200160405190810160405280929190818152602001828054600181600116156101000203166002900480156109105780601f106108e557610100808354040283529160200191610910565b820191906000526020600020905b8154815290600101906020018083116108f357829003601f168201915b50505050509550838054600181600116156101000203166002900480601f0160208091040260200160405190810160405280929190818152602001828054600181600116156101000203166002900480156109ac5780601f10610981576101008083540402835291602001916109ac565b820191906000526020600020905b81548152906001019060200180831161098f57829003601f168201915b50505050509350808054600181600116156101000203166002900480601f016020809104026020016040519081016040528092919081815260200182805460018160011615610100020316600290048015610a485780601f10610a1d57610100808354040283529160200191610a48565b820191906000526020600020905b815481529060010190602001808311610a2b57829003601f168201915b50505050509050965096509650965096509650965090919293949596565b8060009080519060200190610a7c929190610ba2565b5050565b606060008054600181600116156101000203166002900480601f016020809104026020016040519081016040528092919081815260200182805460018160011615610100020316600290048015610b185780601f10610aed57610100808354040283529160200191610b18565b820191906000526020600020905b815481529060010190602001808311610afb57829003601f168201915b5050505050905090565b828054600181600116156101000203166002900490600052602060002090601f016020900481019282601f10610b6357805160ff1916838001178555610b91565b82800160010185558215610b91579182015b82811115610b90578251825591602001919060010190610b75565b5b509050610b9e9190610c22565b5090565b828054600181600116156101000203166002900490600052602060002090601f016020900481019282601f10610be357805160ff1916838001178555610c11565b82800160010185558215610c11579182015b82811115610c10578251825591602001919060010190610bf5565b5b509050610c1e9190610c22565b5090565b610c4491905b80821115610c40576000816000905550600101610c28565b5090565b9056fea265627a7a723158201e3d782742ae02a9c55474f46665d6cefd4ac48f31c7729528d859ece74607b064736f6c63430005110032",
  "source": "pragma solidity ^0.5.0;\n\ncontract SimpleStorage {\n    string ipfsfile = \"kick\";\n    enum Genders {male, female}\n    \n    struct  Child{\n        string  Childnames;\n        string  Surname;\n        Genders Gender;\n        string  Highschool;\n        uint32  MatricYear;\n        uint32  APS;\n        string  BirthFile;\n    }\n    \n \n    Child       child;\n   \n   \n    function setipfsfile(string memory x) public {\n        ipfsfile = x;\n    }\n\n    function getipfsfile() public view returns (string memory) {\n        return ipfsfile;\n    }\n    \n    function createChild(\n            string memory childnames, \n            string memory surname, \n            Genders gender, \n            string memory highschool, \n            uint32 matricYear, \n            uint32 aps, \n            string memory birthfile\n            ) public {\n        child = Child(\n                    childnames,\n                    surname, \n                    gender, \n                    highschool, \n                    matricYear, \n                    aps, \n                    birthfile\n                );\n    }\n   \n    function getChild() public view returns (\n            string memory, \n            string memory, \n            Genders, \n            string memory, \n            uint32, \n            uint32, \n            string memory\n        ) {\n        return (\n            child.Childnames,\n            child.Surname,\n            child.Gender,\n            child.Highschool,\n            child.MatricYear,\n            child.APS,\n            child.BirthFile\n        );\n   }\n   \n}",
  "sourcePath": "C:\\Users\\medupir\\Downloads\\Auggur\\DApps\\my-app\\contracts\\SimpleStorage.sol",
  "compiler": {
    "name": "solc",
    "version": "0.5.17+commit.d19bba13.Emscripten.clang"
  },
  "schemaVersion": "3.0.23",
  "updatedAt": "2020-06-02T08:13:08.250Z",
  "devdoc": {
    "methods": {}
  },
  "userdoc": {
    "methods": {}
  }
}